:1000000019C020C01FC035C01DC01CC01BC01AC0F5
:1000100019C018C017C016C015C014C013C012C034
:1000200011C010C00FC00EC00DC00CC00BC00AC064
:1000300009C008C011241FBECFEFD2E0DEBFCDBF84
:1000400014D092C0DDCF22982A98089584B1847C80
:1000500084B985B18B6385B981E080936800EBE654
:10006000F0E080818B6380830895EDDFEFDF40D087
:10007000FFCF1F920F920FB60F9211240F900FBE59
:100080000F901F9018954198429A8AB11AB88BB177
:100090001BB8439A8DE08A95F1F70000439889B127
:1000A0009BB11BB89AB19FEF9AB9992787FD90959C
:1000B000892F881F8827881F90E00895E4DF892B07
:1000C000E9F741984298589859985A985B985C98E3
:1000D0005D985E985F9A439A8DE08A95F1F70000EB
:1000E000439883EF91E00197F1F700C00000089575
:1000F00085EA9EE00197F1F700C000008EE087B925
:10010000C2DF892BE9F7419842985C985D985E9A26
:100110005F9A439A9DE09A95F1F700004398B3DF08
:10012000892BE9F741985C9A5D985E985F98439AAD
:100130008DE08A95F1F700004398A5DF892BE9F758
:10014000589859985A985B985C985D9A5E9A5F980F
:10015000439A9DE09A95F1F7000043988DE08A95C7
:0C016000F1F70000ABDF0895F894FFCF2A
:00000001FF
